{
  "_format": "hh3-artifact-1",
  "contractName": "DynamicAvatar",
  "sourceName": "contracts/DynamicAvatar.sol",
  "abi": [
    {
      "inputs": [],
      "stateMutability": "nonpayable",
      "type": "constructor"
    },
    {
      "inputs": [
        {
          "internalType": "address",
          "name": "sender",
          "type": "address"
        },
        {
          "internalType": "uint256",
          "name": "tokenId",
          "type": "uint256"
        },
        {
          "internalType": "address",
          "name": "owner",
          "type": "address"
        }
      ],
      "name": "ERC721IncorrectOwner",
      "type": "error"
    },
    {
      "inputs": [
        {
          "internalType": "address",
          "name": "operator",
          "type": "address"
        },
        {
          "internalType": "uint256",
          "name": "tokenId",
          "type": "uint256"
        }
      ],
      "name": "ERC721InsufficientApproval",
      "type": "error"
    },
    {
      "inputs": [
        {
          "internalType": "address",
          "name": "approver",
          "type": "address"
        }
      ],
      "name": "ERC721InvalidApprover",
      "type": "error"
    },
    {
      "inputs": [
        {
          "internalType": "address",
          "name": "operator",
          "type": "address"
        }
      ],
      "name": "ERC721InvalidOperator",
      "type": "error"
    },
    {
      "inputs": [
        {
          "internalType": "address",
          "name": "owner",
          "type": "address"
        }
      ],
      "name": "ERC721InvalidOwner",
      "type": "error"
    },
    {
      "inputs": [
        {
          "internalType": "address",
          "name": "receiver",
          "type": "address"
        }
      ],
      "name": "ERC721InvalidReceiver",
      "type": "error"
    },
    {
      "inputs": [
        {
          "internalType": "address",
          "name": "sender",
          "type": "address"
        }
      ],
      "name": "ERC721InvalidSender",
      "type": "error"
    },
    {
      "inputs": [
        {
          "internalType": "uint256",
          "name": "tokenId",
          "type": "uint256"
        }
      ],
      "name": "ERC721NonexistentToken",
      "type": "error"
    },
    {
      "anonymous": false,
      "inputs": [
        {
          "indexed": true,
          "internalType": "address",
          "name": "owner",
          "type": "address"
        },
        {
          "indexed": true,
          "internalType": "address",
          "name": "approved",
          "type": "address"
        },
        {
          "indexed": true,
          "internalType": "uint256",
          "name": "tokenId",
          "type": "uint256"
        }
      ],
      "name": "Approval",
      "type": "event"
    },
    {
      "anonymous": false,
      "inputs": [
        {
          "indexed": true,
          "internalType": "address",
          "name": "owner",
          "type": "address"
        },
        {
          "indexed": true,
          "internalType": "address",
          "name": "operator",
          "type": "address"
        },
        {
          "indexed": false,
          "internalType": "bool",
          "name": "approved",
          "type": "bool"
        }
      ],
      "name": "ApprovalForAll",
      "type": "event"
    },
    {
      "anonymous": false,
      "inputs": [
        {
          "indexed": false,
          "internalType": "uint256",
          "name": "_fromTokenId",
          "type": "uint256"
        },
        {
          "indexed": false,
          "internalType": "uint256",
          "name": "_toTokenId",
          "type": "uint256"
        }
      ],
      "name": "BatchMetadataUpdate",
      "type": "event"
    },
    {
      "anonymous": false,
      "inputs": [
        {
          "indexed": false,
          "internalType": "uint256",
          "name": "_tokenId",
          "type": "uint256"
        }
      ],
      "name": "MetadataUpdate",
      "type": "event"
    },
    {
      "anonymous": false,
      "inputs": [
        {
          "indexed": true,
          "internalType": "address",
          "name": "from",
          "type": "address"
        },
        {
          "indexed": true,
          "internalType": "address",
          "name": "to",
          "type": "address"
        },
        {
          "indexed": true,
          "internalType": "uint256",
          "name": "tokenId",
          "type": "uint256"
        }
      ],
      "name": "Transfer",
      "type": "event"
    },
    {
      "inputs": [
        {
          "internalType": "address",
          "name": "to",
          "type": "address"
        },
        {
          "internalType": "uint256",
          "name": "tokenId",
          "type": "uint256"
        }
      ],
      "name": "approve",
      "outputs": [],
      "stateMutability": "nonpayable",
      "type": "function"
    },
    {
      "inputs": [
        {
          "internalType": "address",
          "name": "owner",
          "type": "address"
        }
      ],
      "name": "balanceOf",
      "outputs": [
        {
          "internalType": "uint256",
          "name": "",
          "type": "uint256"
        }
      ],
      "stateMutability": "view",
      "type": "function"
    },
    {
      "inputs": [
        {
          "internalType": "uint256",
          "name": "tokenId",
          "type": "uint256"
        }
      ],
      "name": "getApproved",
      "outputs": [
        {
          "internalType": "address",
          "name": "",
          "type": "address"
        }
      ],
      "stateMutability": "view",
      "type": "function"
    },
    {
      "inputs": [
        {
          "internalType": "address",
          "name": "owner",
          "type": "address"
        },
        {
          "internalType": "address",
          "name": "operator",
          "type": "address"
        }
      ],
      "name": "isApprovedForAll",
      "outputs": [
        {
          "internalType": "bool",
          "name": "",
          "type": "bool"
        }
      ],
      "stateMutability": "view",
      "type": "function"
    },
    {
      "inputs": [
        {
          "internalType": "string",
          "name": "uri",
          "type": "string"
        }
      ],
      "name": "mintAvatar",
      "outputs": [
        {
          "internalType": "uint256",
          "name": "",
          "type": "uint256"
        }
      ],
      "stateMutability": "nonpayable",
      "type": "function"
    },
    {
      "inputs": [],
      "name": "name",
      "outputs": [
        {
          "internalType": "string",
          "name": "",
          "type": "string"
        }
      ],
      "stateMutability": "view",
      "type": "function"
    },
    {
      "inputs": [
        {
          "internalType": "uint256",
          "name": "tokenId",
          "type": "uint256"
        }
      ],
      "name": "ownerOf",
      "outputs": [
        {
          "internalType": "address",
          "name": "",
          "type": "address"
        }
      ],
      "stateMutability": "view",
      "type": "function"
    },
    {
      "inputs": [
        {
          "internalType": "address",
          "name": "from",
          "type": "address"
        },
        {
          "internalType": "address",
          "name": "to",
          "type": "address"
        },
        {
          "internalType": "uint256",
          "name": "tokenId",
          "type": "uint256"
        }
      ],
      "name": "safeTransferFrom",
      "outputs": [],
      "stateMutability": "nonpayable",
      "type": "function"
    },
    {
      "inputs": [
        {
          "internalType": "address",
          "name": "from",
          "type": "address"
        },
        {
          "internalType": "address",
          "name": "to",
          "type": "address"
        },
        {
          "internalType": "uint256",
          "name": "tokenId",
          "type": "uint256"
        },
        {
          "internalType": "bytes",
          "name": "data",
          "type": "bytes"
        }
      ],
      "name": "safeTransferFrom",
      "outputs": [],
      "stateMutability": "nonpayable",
      "type": "function"
    },
    {
      "inputs": [
        {
          "internalType": "address",
          "name": "operator",
          "type": "address"
        },
        {
          "internalType": "bool",
          "name": "approved",
          "type": "bool"
        }
      ],
      "name": "setApprovalForAll",
      "outputs": [],
      "stateMutability": "nonpayable",
      "type": "function"
    },
    {
      "inputs": [
        {
          "internalType": "bytes4",
          "name": "interfaceId",
          "type": "bytes4"
        }
      ],
      "name": "supportsInterface",
      "outputs": [
        {
          "internalType": "bool",
          "name": "",
          "type": "bool"
        }
      ],
      "stateMutability": "view",
      "type": "function"
    },
    {
      "inputs": [],
      "name": "symbol",
      "outputs": [
        {
          "internalType": "string",
          "name": "",
          "type": "string"
        }
      ],
      "stateMutability": "view",
      "type": "function"
    },
    {
      "inputs": [
        {
          "internalType": "uint256",
          "name": "tokenId",
          "type": "uint256"
        }
      ],
      "name": "tokenURI",
      "outputs": [
        {
          "internalType": "string",
          "name": "",
          "type": "string"
        }
      ],
      "stateMutability": "view",
      "type": "function"
    },
    {
      "inputs": [
        {
          "internalType": "address",
          "name": "from",
          "type": "address"
        },
        {
          "internalType": "address",
          "name": "to",
          "type": "address"
        },
        {
          "internalType": "uint256",
          "name": "tokenId",
          "type": "uint256"
        }
      ],
      "name": "transferFrom",
      "outputs": [],
      "stateMutability": "nonpayable",
      "type": "function"
    }
  ],
  "bytecode": "0x608060405234801562000010575f80fd5b506040518060400160405280601781526020017f44796e616d696320417661746172204964656e746974790000000000000000008152506040518060400160405280600381526020017f4441490000000000000000000000000000000000000000000000000000000000815250815f90816200008d91906200030c565b5080600190816200009f91906200030c565b505050620003f0565b5f81519050919050565b7f4e487b71000000000000000000000000000000000000000000000000000000005f52604160045260245ffd5b7f4e487b71000000000000000000000000000000000000000000000000000000005f52602260045260245ffd5b5f60028204905060018216806200012457607f821691505b6020821081036200013a5762000139620000df565b5b50919050565b5f819050815f5260205f209050919050565b5f6020601f8301049050919050565b5f82821b905092915050565b5f600883026200019e7fffffffffffffffffffffffffffffffffffffffffffffffffffffffffffffffff8262000161565b620001aa868362000161565b95508019841693508086168417925050509392505050565b5f819050919050565b5f819050919050565b5f620001f4620001ee620001e884620001c2565b620001cb565b620001c2565b9050919050565b5f819050919050565b6200020f83620001d4565b620002276200021e82620001fb565b8484546200016d565b825550505050565b5f90565b6200023d6200022f565b6200024a81848462000204565b505050565b5b818110156200027157620002655f8262000233565b60018101905062000250565b5050565b601f821115620002c0576200028a8162000140565b620002958462000152565b81016020851015620002a5578190505b620002bd620002b48562000152565b8301826200024f565b50505b505050565b5f82821c905092915050565b5f620002e25f1984600802620002c5565b1980831691505092915050565b5f620002fc8383620002d1565b9150826002028217905092915050565b6200031782620000a8565b67ffffffffffffffff811115620003335762000332620000b2565b5b6200033f82546200010c565b6200034c82828562000275565b5f60209050601f83116001811462000382575f84156200036d578287015190505b620003798582620002ef565b865550620003e8565b601f198416620003928662000140565b5f5b82811015620003bb5784890151825560018201915060208501945060208101905062000394565b86831015620003db5784890151620003d7601f891682620002d1565b8355505b6001600288020188555050505b505050505050565b61236180620003fe5f395ff3fe608060405234801561000f575f80fd5b50600436106100e8575f3560e01c806370a082311161008a578063a22cb46511610064578063a22cb4651461026c578063b88d4fde14610288578063c87b56dd146102a4578063e985e9c5146102d4576100e8565b806370a08231146101ee57806380d343671461021e57806395d89b411461024e576100e8565b8063095ea7b3116100c6578063095ea7b31461016a57806323b872dd1461018657806342842e0e146101a25780636352211e146101be576100e8565b806301ffc9a7146100ec57806306fdde031461011c578063081812fc1461013a575b5f80fd5b6101066004803603810190610101919061182d565b610304565b6040516101139190611872565b60405180910390f35b610124610364565b6040516101319190611915565b60405180910390f35b610154600480360381019061014f9190611968565b6103f3565b60405161016191906119d2565b60405180910390f35b610184600480360381019061017f9190611a15565b61040e565b005b6101a0600480360381019061019b9190611a53565b610424565b005b6101bc60048036038101906101b79190611a53565b610523565b005b6101d860048036038101906101d39190611968565b610542565b6040516101e591906119d2565b60405180910390f35b61020860048036038101906102039190611aa3565b610553565b6040516102159190611add565b60405180910390f35b61023860048036038101906102339190611c22565b610609565b6040516102459190611add565b60405180910390f35b610256610640565b6040516102639190611915565b60405180910390f35b61028660048036038101906102819190611c93565b6106d0565b005b6102a2600480360381019061029d9190611d6f565b6106e6565b005b6102be60048036038101906102b99190611968565b61070b565b6040516102cb9190611915565b60405180910390f35b6102ee60048036038101906102e99190611def565b610787565b6040516102fb9190611872565b60405180910390f35b5f634906490660e01b7bffffffffffffffffffffffffffffffffffffffffffffffffffffffff1916827bffffffffffffffffffffffffffffffffffffffffffffffffffffffff1916148061035d575061035c82610815565b5b9050919050565b60605f805461037290611e5a565b80601f016020809104026020016040519081016040528092919081815260200182805461039e90611e5a565b80156103e95780601f106103c0576101008083540402835291602001916103e9565b820191905f5260205f20905b8154815290600101906020018083116103cc57829003601f168201915b5050505050905090565b5f6103fd826108f6565b506104078261097c565b9050919050565b610420828261041b6109b5565b6109bc565b5050565b5f73ffffffffffffffffffffffffffffffffffffffff168273ffffffffffffffffffffffffffffffffffffffff1603610494575f6040517f64a0ae9200000000000000000000000000000000000000000000000000000000815260040161048b91906119d2565b60405180910390fd5b5f6104a783836104a26109b5565b6109ce565b90508373ffffffffffffffffffffffffffffffffffffffff168173ffffffffffffffffffffffffffffffffffffffff161461051d578382826040517f64283d7b00000000000000000000000000000000000000000000000000000000815260040161051493929190611e8a565b60405180910390fd5b50505050565b61053d83838360405180602001604052805f8152506106e6565b505050565b5f61054c826108f6565b9050919050565b5f8073ffffffffffffffffffffffffffffffffffffffff168273ffffffffffffffffffffffffffffffffffffffff16036105c4575f6040517f89c62b640000000000000000000000000000000000000000000000000000000081526004016105bb91906119d2565b60405180910390fd5b60035f8373ffffffffffffffffffffffffffffffffffffffff1673ffffffffffffffffffffffffffffffffffffffff1681526020019081526020015f20549050919050565b5f8060075f81548092919061061d90611eec565b91905055905061062d3382610bd9565b6106378184610ccc565b80915050919050565b60606001805461064f90611e5a565b80601f016020809104026020016040519081016040528092919081815260200182805461067b90611e5a565b80156106c65780601f1061069d576101008083540402835291602001916106c6565b820191905f5260205f20905b8154815290600101906020018083116106a957829003601f168201915b5050505050905090565b6106e26106db6109b5565b8383610d26565b5050565b6106f1848484610424565b6107056106fc6109b5565b85858585610eff565b50505050565b6060610716826108f6565b505f6107206110ab565b90505f61072c846110c1565b90505f825103610740578092505050610782565b5f8151111561077457818160405160200161075c929190611f6d565b60405160208183030381529060405292505050610782565b61077d84611162565b925050505b919050565b5f60055f8473ffffffffffffffffffffffffffffffffffffffff1673ffffffffffffffffffffffffffffffffffffffff1681526020019081526020015f205f8373ffffffffffffffffffffffffffffffffffffffff1673ffffffffffffffffffffffffffffffffffffffff1681526020019081526020015f205f9054906101000a900460ff16905092915050565b5f7f80ac58cd000000000000000000000000000000000000000000000000000000007bffffffffffffffffffffffffffffffffffffffffffffffffffffffff1916827bffffffffffffffffffffffffffffffffffffffffffffffffffffffff191614806108df57507f5b5e139f000000000000000000000000000000000000000000000000000000007bffffffffffffffffffffffffffffffffffffffffffffffffffffffff1916827bffffffffffffffffffffffffffffffffffffffffffffffffffffffff1916145b806108ef57506108ee826111c8565b5b9050919050565b5f8061090183611231565b90505f73ffffffffffffffffffffffffffffffffffffffff168173ffffffffffffffffffffffffffffffffffffffff160361097357826040517f7e27328900000000000000000000000000000000000000000000000000000000815260040161096a9190611add565b60405180910390fd5b80915050919050565b5f60045f8381526020019081526020015f205f9054906101000a900473ffffffffffffffffffffffffffffffffffffffff169050919050565b5f33905090565b6109c9838383600161126a565b505050565b5f806109d984611231565b90505f73ffffffffffffffffffffffffffffffffffffffff168373ffffffffffffffffffffffffffffffffffffffff1614610a1a57610a19818486611429565b5b5f73ffffffffffffffffffffffffffffffffffffffff168173ffffffffffffffffffffffffffffffffffffffff1614610aa557610a595f855f8061126a565b600160035f8373ffffffffffffffffffffffffffffffffffffffff1673ffffffffffffffffffffffffffffffffffffffff1681526020019081526020015f205f82825403925050819055505b5f73ffffffffffffffffffffffffffffffffffffffff168573ffffffffffffffffffffffffffffffffffffffff1614610b2457600160035f8773ffffffffffffffffffffffffffffffffffffffff1673ffffffffffffffffffffffffffffffffffffffff1681526020019081526020015f205f82825401925050819055505b8460025f8681526020019081526020015f205f6101000a81548173ffffffffffffffffffffffffffffffffffffffff021916908373ffffffffffffffffffffffffffffffffffffffff160217905550838573ffffffffffffffffffffffffffffffffffffffff168273ffffffffffffffffffffffffffffffffffffffff167fddf252ad1be2c89b69c2b068fc378daa952ba7f163c4a11628f55a4df523b3ef60405160405180910390a4809150509392505050565b5f73ffffffffffffffffffffffffffffffffffffffff168273ffffffffffffffffffffffffffffffffffffffff1603610c49575f6040517f64a0ae92000000000000000000000000000000000000000000000000000000008152600401610c4091906119d2565b60405180910390fd5b5f610c5583835f6109ce565b90505f73ffffffffffffffffffffffffffffffffffffffff168173ffffffffffffffffffffffffffffffffffffffff1614610cc7575f6040517f73c6ac6e000000000000000000000000000000000000000000000000000000008152600401610cbe91906119d2565b60405180910390fd5b505050565b8060065f8481526020019081526020015f209081610cea919061212d565b507ff8e1a15aba9398e019f0b49df1a4fde98ee17ae345cb5f6b5e2c27f5033e8ce782604051610d1a9190611add565b60405180910390a15050565b5f73ffffffffffffffffffffffffffffffffffffffff168373ffffffffffffffffffffffffffffffffffffffff1603610d96575f6040517fa9fbf51f000000000000000000000000000000000000000000000000000000008152600401610d8d91906119d2565b60405180910390fd5b5f73ffffffffffffffffffffffffffffffffffffffff168273ffffffffffffffffffffffffffffffffffffffff1603610e0657816040517f5b08ba18000000000000000000000000000000000000000000000000000000008152600401610dfd91906119d2565b60405180910390fd5b8060055f8573ffffffffffffffffffffffffffffffffffffffff1673ffffffffffffffffffffffffffffffffffffffff1681526020019081526020015f205f8473ffffffffffffffffffffffffffffffffffffffff1673ffffffffffffffffffffffffffffffffffffffff1681526020019081526020015f205f6101000a81548160ff0219169083151502179055508173ffffffffffffffffffffffffffffffffffffffff168373ffffffffffffffffffffffffffffffffffffffff167f17307eab39ab6107e8899845ad3d59bd9653f200f220920489ca2b5937696c3183604051610ef29190611872565b60405180910390a3505050565b5f8373ffffffffffffffffffffffffffffffffffffffff163b11156110a4578273ffffffffffffffffffffffffffffffffffffffff1663150b7a02868685856040518563ffffffff1660e01b8152600401610f5d949392919061224e565b6020604051808303815f875af1925050508015610f9857506040513d601f19601f82011682018060405250810190610f9591906122ac565b60015b611019573d805f8114610fc6576040519150601f19603f3d011682016040523d82523d5f602084013e610fcb565b606091505b505f81510361101157836040517f64a0ae9200000000000000000000000000000000000000000000000000000000815260040161100891906119d2565b60405180910390fd5b805160208201fd5b63150b7a0260e01b7bffffffffffffffffffffffffffffffffffffffffffffffffffffffff1916817bffffffffffffffffffffffffffffffffffffffffffffffffffffffff1916146110a257836040517f64a0ae9200000000000000000000000000000000000000000000000000000000815260040161109991906119d2565b60405180910390fd5b505b5050505050565b606060405180602001604052805f815250905090565b606060065f8381526020019081526020015f2080546110df90611e5a565b80601f016020809104026020016040519081016040528092919081815260200182805461110b90611e5a565b80156111565780601f1061112d57610100808354040283529160200191611156565b820191905f5260205f20905b81548152906001019060200180831161113957829003601f168201915b50505050509050919050565b606061116d826108f6565b505f6111776110ab565b90505f8151116111955760405180602001604052805f8152506111c0565b8061119f846114ec565b6040516020016111b0929190611f6d565b6040516020818303038152906040525b915050919050565b5f7f01ffc9a7000000000000000000000000000000000000000000000000000000007bffffffffffffffffffffffffffffffffffffffffffffffffffffffff1916827bffffffffffffffffffffffffffffffffffffffffffffffffffffffff1916149050919050565b5f60025f8381526020019081526020015f205f9054906101000a900473ffffffffffffffffffffffffffffffffffffffff169050919050565b80806112a257505f73ffffffffffffffffffffffffffffffffffffffff168273ffffffffffffffffffffffffffffffffffffffff1614155b156113d4575f6112b1846108f6565b90505f73ffffffffffffffffffffffffffffffffffffffff168373ffffffffffffffffffffffffffffffffffffffff161415801561131b57508273ffffffffffffffffffffffffffffffffffffffff168173ffffffffffffffffffffffffffffffffffffffff1614155b801561132e575061132c8184610787565b155b1561137057826040517fa9fbf51f00000000000000000000000000000000000000000000000000000000815260040161136791906119d2565b60405180910390fd5b81156113d257838573ffffffffffffffffffffffffffffffffffffffff168273ffffffffffffffffffffffffffffffffffffffff167f8c5be1e5ebec7d5bd14f71427d1e84f3dd0314c0f7b2291e5b200ac8c7c3b92560405160405180910390a45b505b8360045f8581526020019081526020015f205f6101000a81548173ffffffffffffffffffffffffffffffffffffffff021916908373ffffffffffffffffffffffffffffffffffffffff16021790555050505050565b6114348383836115b6565b6114e7575f73ffffffffffffffffffffffffffffffffffffffff168373ffffffffffffffffffffffffffffffffffffffff16036114a857806040517f7e27328900000000000000000000000000000000000000000000000000000000815260040161149f9190611add565b60405180910390fd5b81816040517f177e802f0000000000000000000000000000000000000000000000000000000081526004016114de9291906122d7565b60405180910390fd5b505050565b60605f60016114fa84611676565b0190505f8167ffffffffffffffff81111561151857611517611afe565b5b6040519080825280601f01601f19166020018201604052801561154a5781602001600182028036833780820191505090505b5090505f82602083010190505b6001156115ab578080600190039150507f3031323334353637383961626364656600000000000000000000000000000000600a86061a8153600a85816115a05761159f6122fe565b5b0494505f8503611557575b819350505050919050565b5f8073ffffffffffffffffffffffffffffffffffffffff168373ffffffffffffffffffffffffffffffffffffffff161415801561166d57508273ffffffffffffffffffffffffffffffffffffffff168473ffffffffffffffffffffffffffffffffffffffff16148061162e575061162d8484610787565b5b8061166c57508273ffffffffffffffffffffffffffffffffffffffff166116548361097c565b73ffffffffffffffffffffffffffffffffffffffff16145b5b90509392505050565b5f805f90507a184f03e93ff9f4daa797ed6e38ed64bf6a1f01000000000000000083106116d2577a184f03e93ff9f4daa797ed6e38ed64bf6a1f01000000000000000083816116c8576116c76122fe565b5b0492506040810190505b6d04ee2d6d415b85acef8100000000831061170f576d04ee2d6d415b85acef81000000008381611705576117046122fe565b5b0492506020810190505b662386f26fc10000831061173e57662386f26fc100008381611734576117336122fe565b5b0492506010810190505b6305f5e1008310611767576305f5e100838161175d5761175c6122fe565b5b0492506008810190505b612710831061178c576127108381611782576117816122fe565b5b0492506004810190505b606483106117af57606483816117a5576117a46122fe565b5b0492506002810190505b600a83106117be576001810190505b80915050919050565b5f604051905090565b5f80fd5b5f80fd5b5f7fffffffff0000000000000000000000000000000000000000000000000000000082169050919050565b61180c816117d8565b8114611816575f80fd5b50565b5f8135905061182781611803565b92915050565b5f60208284031215611842576118416117d0565b5b5f61184f84828501611819565b91505092915050565b5f8115159050919050565b61186c81611858565b82525050565b5f6020820190506118855f830184611863565b92915050565b5f81519050919050565b5f82825260208201905092915050565b5f5b838110156118c25780820151818401526020810190506118a7565b5f8484015250505050565b5f601f19601f8301169050919050565b5f6118e78261188b565b6118f18185611895565b93506119018185602086016118a5565b61190a816118cd565b840191505092915050565b5f6020820190508181035f83015261192d81846118dd565b905092915050565b5f819050919050565b61194781611935565b8114611951575f80fd5b50565b5f813590506119628161193e565b92915050565b5f6020828403121561197d5761197c6117d0565b5b5f61198a84828501611954565b91505092915050565b5f73ffffffffffffffffffffffffffffffffffffffff82169050919050565b5f6119bc82611993565b9050919050565b6119cc816119b2565b82525050565b5f6020820190506119e55f8301846119c3565b92915050565b6119f4816119b2565b81146119fe575f80fd5b50565b5f81359050611a0f816119eb565b92915050565b5f8060408385031215611a2b57611a2a6117d0565b5b5f611a3885828601611a01565b9250506020611a4985828601611954565b9150509250929050565b5f805f60608486031215611a6a57611a696117d0565b5b5f611a7786828701611a01565b9350506020611a8886828701611a01565b9250506040611a9986828701611954565b9150509250925092565b5f60208284031215611ab857611ab76117d0565b5b5f611ac584828501611a01565b91505092915050565b611ad781611935565b82525050565b5f602082019050611af05f830184611ace565b92915050565b5f80fd5b5f80fd5b7f4e487b71000000000000000000000000000000000000000000000000000000005f52604160045260245ffd5b611b34826118cd565b810181811067ffffffffffffffff82111715611b5357611b52611afe565b5b80604052505050565b5f611b656117c7565b9050611b718282611b2b565b919050565b5f67ffffffffffffffff821115611b9057611b8f611afe565b5b611b99826118cd565b9050602081019050919050565b828183375f83830152505050565b5f611bc6611bc184611b76565b611b5c565b905082815260208101848484011115611be257611be1611afa565b5b611bed848285611ba6565b509392505050565b5f82601f830112611c0957611c08611af6565b5b8135611c19848260208601611bb4565b91505092915050565b5f60208284031215611c3757611c366117d0565b5b5f82013567ffffffffffffffff811115611c5457611c536117d4565b5b611c6084828501611bf5565b91505092915050565b611c7281611858565b8114611c7c575f80fd5b50565b5f81359050611c8d81611c69565b92915050565b5f8060408385031215611ca957611ca86117d0565b5b5f611cb685828601611a01565b9250506020611cc785828601611c7f565b9150509250929050565b5f67ffffffffffffffff821115611ceb57611cea611afe565b5b611cf4826118cd565b9050602081019050919050565b5f611d13611d0e84611cd1565b611b5c565b905082815260208101848484011115611d2f57611d2e611afa565b5b611d3a848285611ba6565b509392505050565b5f82601f830112611d5657611d55611af6565b5b8135611d66848260208601611d01565b91505092915050565b5f805f8060808587031215611d8757611d866117d0565b5b5f611d9487828801611a01565b9450506020611da587828801611a01565b9350506040611db687828801611954565b925050606085013567ffffffffffffffff811115611dd757611dd66117d4565b5b611de387828801611d42565b91505092959194509250565b5f8060408385031215611e0557611e046117d0565b5b5f611e1285828601611a01565b9250506020611e2385828601611a01565b9150509250929050565b7f4e487b71000000000000000000000000000000000000000000000000000000005f52602260045260245ffd5b5f6002820490506001821680611e7157607f821691505b602082108103611e8457611e83611e2d565b5b50919050565b5f606082019050611e9d5f8301866119c3565b611eaa6020830185611ace565b611eb760408301846119c3565b949350505050565b7f4e487b71000000000000000000000000000000000000000000000000000000005f52601160045260245ffd5b5f611ef682611935565b91507fffffffffffffffffffffffffffffffffffffffffffffffffffffffffffffffff8203611f2857611f27611ebf565b5b600182019050919050565b5f81905092915050565b5f611f478261188b565b611f518185611f33565b9350611f618185602086016118a5565b80840191505092915050565b5f611f788285611f3d565b9150611f848284611f3d565b91508190509392505050565b5f819050815f5260205f209050919050565b5f6020601f8301049050919050565b5f82821b905092915050565b5f60088302611fec7fffffffffffffffffffffffffffffffffffffffffffffffffffffffffffffffff82611fb1565b611ff68683611fb1565b95508019841693508086168417925050509392505050565b5f819050919050565b5f61203161202c61202784611935565b61200e565b611935565b9050919050565b5f819050919050565b61204a83612017565b61205e61205682612038565b848454611fbd565b825550505050565b5f90565b612072612066565b61207d818484612041565b505050565b5b818110156120a0576120955f8261206a565b600181019050612083565b5050565b601f8211156120e5576120b681611f90565b6120bf84611fa2565b810160208510156120ce578190505b6120e26120da85611fa2565b830182612082565b50505b505050565b5f82821c905092915050565b5f6121055f19846008026120ea565b1980831691505092915050565b5f61211d83836120f6565b9150826002028217905092915050565b6121368261188b565b67ffffffffffffffff81111561214f5761214e611afe565b5b6121598254611e5a565b6121648282856120a4565b5f60209050601f831160018114612195575f8415612183578287015190505b61218d8582612112565b8655506121f4565b601f1984166121a386611f90565b5f5b828110156121ca578489015182556001820191506020850194506020810190506121a5565b868310156121e757848901516121e3601f8916826120f6565b8355505b6001600288020188555050505b505050505050565b5f81519050919050565b5f82825260208201905092915050565b5f612220826121fc565b61222a8185612206565b935061223a8185602086016118a5565b612243816118cd565b840191505092915050565b5f6080820190506122615f8301876119c3565b61226e60208301866119c3565b61227b6040830185611ace565b818103606083015261228d8184612216565b905095945050505050565b5f815190506122a681611803565b92915050565b5f602082840312156122c1576122c06117d0565b5b5f6122ce84828501612298565b91505092915050565b5f6040820190506122ea5f8301856119c3565b6122f76020830184611ace565b9392505050565b7f4e487b71000000000000000000000000000000000000000000000000000000005f52601260045260245ffdfea2646970667358221220e935c8df60c7ed8091875714cd85ffe6ab4196b3f7421e9c2ee66250a086298464736f6c63430008180033",
  "linkReferences": {},
  "deployedLinkReferences": {},
  "immutableReferences": {},
  "inputSourceName": "project/contracts/DynamicAvatar.sol",
  "buildInfoId": "solc-0_8_24-fbdbed58d217e01ac384cd4202659a3e0d0136c1"
}